{
  "contractName": "NftTicketEscrow",
  "abi": [
    {
      "inputs": [],
      "stateMutability": "nonpayable",
      "type": "constructor"
    },
    {
      "anonymous": false,
      "inputs": [
        {
          "indexed": true,
          "internalType": "uint256",
          "name": "eventId",
          "type": "uint256"
        }
      ],
      "name": "EventCancelled",
      "type": "event"
    },
    {
      "anonymous": false,
      "inputs": [
        {
          "indexed": true,
          "internalType": "uint256",
          "name": "eventId",
          "type": "uint256"
        },
        {
          "indexed": true,
          "internalType": "address",
          "name": "organizer",
          "type": "address"
        },
        {
          "indexed": false,
          "internalType": "string",
          "name": "name",
          "type": "string"
        },
        {
          "indexed": false,
          "internalType": "uint256",
          "name": "date",
          "type": "uint256"
        },
        {
          "indexed": false,
          "internalType": "uint256",
          "name": "ticketPrice",
          "type": "uint256"
        },
        {
          "indexed": false,
          "internalType": "uint256",
          "name": "maxTickets",
          "type": "uint256"
        }
      ],
      "name": "EventCreated",
      "type": "event"
    },
    {
      "anonymous": false,
      "inputs": [
        {
          "indexed": false,
          "internalType": "uint256",
          "name": "oldBps",
          "type": "uint256"
        },
        {
          "indexed": false,
          "internalType": "uint256",
          "name": "newBps",
          "type": "uint256"
        }
      ],
      "name": "PlatformFeeUpdated",
      "type": "event"
    },
    {
      "anonymous": false,
      "inputs": [
        {
          "indexed": true,
          "internalType": "uint256",
          "name": "eventId",
          "type": "uint256"
        },
        {
          "indexed": true,
          "internalType": "uint256",
          "name": "ticketId",
          "type": "uint256"
        },
        {
          "indexed": true,
          "internalType": "address",
          "name": "buyer",
          "type": "address"
        },
        {
          "indexed": false,
          "internalType": "uint256",
          "name": "price",
          "type": "uint256"
        }
      ],
      "name": "PrimaryTicketPurchased",
      "type": "event"
    },
    {
      "anonymous": false,
      "inputs": [
        {
          "indexed": true,
          "internalType": "uint256",
          "name": "ticketId",
          "type": "uint256"
        },
        {
          "indexed": true,
          "internalType": "uint256",
          "name": "eventId",
          "type": "uint256"
        },
        {
          "indexed": true,
          "internalType": "address",
          "name": "recipient",
          "type": "address"
        },
        {
          "indexed": false,
          "internalType": "uint256",
          "name": "amount",
          "type": "uint256"
        }
      ],
      "name": "RefundIssued",
      "type": "event"
    },
    {
      "anonymous": false,
      "inputs": [
        {
          "indexed": true,
          "internalType": "uint256",
          "name": "ticketId",
          "type": "uint256"
        },
        {
          "indexed": true,
          "internalType": "uint256",
          "name": "eventId",
          "type": "uint256"
        },
        {
          "indexed": true,
          "internalType": "address",
          "name": "buyer",
          "type": "address"
        },
        {
          "indexed": false,
          "internalType": "address",
          "name": "seller",
          "type": "address"
        },
        {
          "indexed": false,
          "internalType": "uint256",
          "name": "price",
          "type": "uint256"
        },
        {
          "indexed": false,
          "internalType": "uint256",
          "name": "fee",
          "type": "uint256"
        }
      ],
      "name": "ResaleCompleted",
      "type": "event"
    },
    {
      "anonymous": false,
      "inputs": [
        {
          "indexed": true,
          "internalType": "uint256",
          "name": "ticketId",
          "type": "uint256"
        },
        {
          "indexed": true,
          "internalType": "uint256",
          "name": "eventId",
          "type": "uint256"
        },
        {
          "indexed": true,
          "internalType": "address",
          "name": "seller",
          "type": "address"
        },
        {
          "indexed": false,
          "internalType": "uint256",
          "name": "resalePrice",
          "type": "uint256"
        }
      ],
      "name": "TicketListedForResale",
      "type": "event"
    },
    {
      "anonymous": false,
      "inputs": [
        {
          "indexed": true,
          "internalType": "uint256",
          "name": "ticketId",
          "type": "uint256"
        },
        {
          "indexed": true,
          "internalType": "uint256",
          "name": "eventId",
          "type": "uint256"
        },
        {
          "indexed": true,
          "internalType": "address",
          "name": "user",
          "type": "address"
        }
      ],
      "name": "TicketUsed",
      "type": "event"
    },
    {
      "stateMutability": "payable",
      "type": "fallback",
      "payable": true
    },
    {
      "inputs": [
        {
          "internalType": "uint256",
          "name": "",
          "type": "uint256"
        }
      ],
      "name": "eventsData",
      "outputs": [
        {
          "internalType": "uint256",
          "name": "id",
          "type": "uint256"
        },
        {
          "internalType": "address",
          "name": "organizer",
          "type": "address"
        },
        {
          "internalType": "string",
          "name": "name",
          "type": "string"
        },
        {
          "internalType": "uint256",
          "name": "date",
          "type": "uint256"
        },
        {
          "internalType": "uint256",
          "name": "ticketPrice",
          "type": "uint256"
        },
        {
          "internalType": "uint256",
          "name": "maxTickets",
          "type": "uint256"
        },
        {
          "internalType": "uint256",
          "name": "soldTickets",
          "type": "uint256"
        },
        {
          "internalType": "bool",
          "name": "isCancelled",
          "type": "bool"
        }
      ],
      "stateMutability": "view",
      "type": "function",
      "constant": true
    },
    {
      "inputs": [],
      "name": "nextEventId",
      "outputs": [
        {
          "internalType": "uint256",
          "name": "",
          "type": "uint256"
        }
      ],
      "stateMutability": "view",
      "type": "function",
      "constant": true
    },
    {
      "inputs": [],
      "name": "nextTicketId",
      "outputs": [
        {
          "internalType": "uint256",
          "name": "",
          "type": "uint256"
        }
      ],
      "stateMutability": "view",
      "type": "function",
      "constant": true
    },
    {
      "inputs": [],
      "name": "platformAdmin",
      "outputs": [
        {
          "internalType": "address",
          "name": "",
          "type": "address"
        }
      ],
      "stateMutability": "view",
      "type": "function",
      "constant": true
    },
    {
      "inputs": [],
      "name": "platformFeeBps",
      "outputs": [
        {
          "internalType": "uint256",
          "name": "",
          "type": "uint256"
        }
      ],
      "stateMutability": "view",
      "type": "function",
      "constant": true
    },
    {
      "inputs": [
        {
          "internalType": "uint256",
          "name": "",
          "type": "uint256"
        }
      ],
      "name": "tickets",
      "outputs": [
        {
          "internalType": "uint256",
          "name": "id",
          "type": "uint256"
        },
        {
          "internalType": "uint256",
          "name": "eventId",
          "type": "uint256"
        },
        {
          "internalType": "address",
          "name": "owner",
          "type": "address"
        },
        {
          "internalType": "uint256",
          "name": "resalePrice",
          "type": "uint256"
        },
        {
          "internalType": "enum NftTicketEscrow.TicketStatus",
          "name": "status",
          "type": "uint8"
        }
      ],
      "stateMutability": "view",
      "type": "function",
      "constant": true
    },
    {
      "stateMutability": "payable",
      "type": "receive",
      "payable": true
    },
    {
      "inputs": [
        {
          "internalType": "uint256",
          "name": "newBps",
          "type": "uint256"
        }
      ],
      "name": "setPlatformFeeBps",
      "outputs": [],
      "stateMutability": "nonpayable",
      "type": "function"
    },
    {
      "inputs": [
        {
          "internalType": "string",
          "name": "name",
          "type": "string"
        },
        {
          "internalType": "uint256",
          "name": "date",
          "type": "uint256"
        },
        {
          "internalType": "uint256",
          "name": "ticketPrice",
          "type": "uint256"
        },
        {
          "internalType": "uint256",
          "name": "maxTickets",
          "type": "uint256"
        }
      ],
      "name": "createEvent",
      "outputs": [],
      "stateMutability": "nonpayable",
      "type": "function"
    },
    {
      "inputs": [
        {
          "internalType": "uint256",
          "name": "eventId",
          "type": "uint256"
        }
      ],
      "name": "buyPrimaryTicket",
      "outputs": [],
      "stateMutability": "payable",
      "type": "function",
      "payable": true
    },
    {
      "inputs": [
        {
          "internalType": "uint256",
          "name": "ticketId",
          "type": "uint256"
        },
        {
          "internalType": "uint256",
          "name": "resalePrice",
          "type": "uint256"
        }
      ],
      "name": "listTicketForResale",
      "outputs": [],
      "stateMutability": "nonpayable",
      "type": "function"
    },
    {
      "inputs": [
        {
          "internalType": "uint256",
          "name": "ticketId",
          "type": "uint256"
        }
      ],
      "name": "buyResaleTicket",
      "outputs": [],
      "stateMutability": "payable",
      "type": "function",
      "payable": true
    },
    {
      "inputs": [
        {
          "internalType": "uint256",
          "name": "ticketId",
          "type": "uint256"
        }
      ],
      "name": "validateTicket",
      "outputs": [],
      "stateMutability": "nonpayable",
      "type": "function"
    },
    {
      "inputs": [
        {
          "internalType": "uint256",
          "name": "eventId",
          "type": "uint256"
        }
      ],
      "name": "cancelEvent",
      "outputs": [],
      "stateMutability": "nonpayable",
      "type": "function"
    },
    {
      "inputs": [
        {
          "internalType": "uint256",
          "name": "ticketId",
          "type": "uint256"
        }
      ],
      "name": "refundTicket",
      "outputs": [],
      "stateMutability": "nonpayable",
      "type": "function"
    },
    {
      "inputs": [
        {
          "internalType": "uint256",
          "name": "eventId",
          "type": "uint256"
        }
      ],
      "name": "eventExists",
      "outputs": [
        {
          "internalType": "bool",
          "name": "",
          "type": "bool"
        }
      ],
      "stateMutability": "view",
      "type": "function",
      "constant": true
    },
    {
      "inputs": [
        {
          "internalType": "uint256",
          "name": "ticketId",
          "type": "uint256"
        }
      ],
      "name": "getTicket",
      "outputs": [
        {
          "internalType": "uint256",
          "name": "id",
          "type": "uint256"
        },
        {
          "internalType": "uint256",
          "name": "eventId",
          "type": "uint256"
        },
        {
          "internalType": "address",
          "name": "owner",
          "type": "address"
        },
        {
          "internalType": "uint256",
          "name": "resalePrice",
          "type": "uint256"
        },
        {
          "internalType": "enum NftTicketEscrow.TicketStatus",
          "name": "status",
          "type": "uint8"
        }
      ],
      "stateMutability": "view",
      "type": "function",
      "constant": true
    }
  ],
  "bytecode": "0x60806040526001600255600160035560fa60055534801561001e575f80fd5b503360045f6101000a81548173ffffffffffffffffffffffffffffffffffffffff021916908373ffffffffffffffffffffffffffffffffffffffff16021790555060fa600581905550612e52806100745f395ff3fe6080604052600436106100f6575f3560e01c80636031a52f116100895780639f9d903a116100585780639f9d903a14610388578063a3c28dfc146103b2578063c580c942146103ee578063cdcd7fb51461041657610136565b80636031a52f146102ce5780636053b0ef146102f857806375774100146103205780637dc379fa1461034857610136565b80632a453f58116100c55780632a453f58146102075780633f69babd1461022357806350b447121461024b5780635298aaa61461028b57610136565b80630374ab0b14610171578063054ae7df146101995780631d9c5d5c146101c157806322dcd13e146101dd57610136565b36610136576040517f08c379a000000000000000000000000000000000000000000000000000000000815260040161012d90611abe565b60405180910390fd5b6040517f08c379a000000000000000000000000000000000000000000000000000000000815260040161016890611abe565b60405180910390fd5b34801561017c575f80fd5b5061019760048036038101906101929190611c5c565b610440565b005b3480156101a4575f80fd5b506101bf60048036038101906101ba9190611cdc565b61068a565b005b6101db60048036038101906101d69190611cdc565b610837565b005b3480156101e8575f80fd5b506101f1610c48565b6040516101fe9190611d16565b60405180910390f35b610221600480360381019061021c9190611cdc565b610c4e565b005b34801561022e575f80fd5b5061024960048036038101906102449190611cdc565b611061565b005b348015610256575f80fd5b50610271600480360381019061026c9190611cdc565b6111b4565b604051610282959493929190611de1565b60405180910390f35b348015610296575f80fd5b506102b160048036038101906102ac9190611cdc565b611211565b6040516102c5989796959493929190611eb6565b60405180910390f35b3480156102d9575f80fd5b506102e2611305565b6040516102ef9190611d16565b60405180910390f35b348015610303575f80fd5b5061031e60048036038101906103199190611f39565b61130b565b005b34801561032b575f80fd5b5061034660048036038101906103419190611cdc565b6114f7565b005b348015610353575f80fd5b5061036e60048036038101906103699190611cdc565b611841565b60405161037f959493929190611de1565b60405180910390f35b348015610393575f80fd5b5061039c6118b1565b6040516103a99190611d16565b60405180910390f35b3480156103bd575f80fd5b506103d860048036038101906103d39190611cdc565b6118b7565b6040516103e59190611f77565b60405180910390f35b3480156103f9575f80fd5b50610414600480360381019061040f9190611cdc565b611921565b005b348015610421575f80fd5b5061042a611a3f565b6040516104379190611f90565b60405180910390f35b428311610482576040517f08c379a000000000000000000000000000000000000000000000000000000000815260040161047990611ff3565b60405180910390fd5b5f82116104c4576040517f08c379a00000000000000000000000000000000000000000000000000000000081526004016104bb9061205b565b60405180910390fd5b5f8111610506576040517f08c379a00000000000000000000000000000000000000000000000000000000081526004016104fd906120c3565b60405180910390fd5b5f60025f8154809291906105199061210e565b9190505590506040518061010001604052808281526020013373ffffffffffffffffffffffffffffffffffffffff1681526020018681526020018581526020018481526020018381526020015f81526020015f15158152505f808381526020019081526020015f205f820151815f01556020820151816001015f6101000a81548173ffffffffffffffffffffffffffffffffffffffff021916908373ffffffffffffffffffffffffffffffffffffffff16021790555060408201518160020190816105e4919061234f565b50606082015181600301556080820151816004015560a0820151816005015560c0820151816006015560e0820151816007015f6101000a81548160ff0219169083151502179055509050503373ffffffffffffffffffffffffffffffffffffffff16817e502bb4a70fbdfd0aa0d94a5600024efa4814e325c02c38409f206cdd72d6af8787878760405161067b949392919061241e565b60405180910390a35050505050565b5f60015f8381526020019081526020015f209050600160058111156106b2576106b1611d6e565b5b816004015f9054906101000a900460ff1660058111156106d5576106d4611d6e565b5b14610715576040517f08c379a000000000000000000000000000000000000000000000000000000000815260040161070c906124b2565b60405180910390fd5b5f805f836001015481526020019081526020015f2090505f73ffffffffffffffffffffffffffffffffffffffff16816001015f9054906101000a900473ffffffffffffffffffffffffffffffffffffffff1673ffffffffffffffffffffffffffffffffffffffff16036107bd576040517f08c379a00000000000000000000000000000000000000000000000000000000081526004016107b49061251a565b60405180910390fd5b6004826004015f6101000a81548160ff021916908360058111156107e4576107e3611d6e565b5b02179055503373ffffffffffffffffffffffffffffffffffffffff168260010154847fb35ebdfb9515b145e406c5c5a0846ec436db0b9560927af3af7a754d90c4f6ff60405160405180910390a4505050565b5f60015f8381526020019081526020015f2090506002600581111561085f5761085e611d6e565b5b816004015f9054906101000a900460ff16600581111561088257610881611d6e565b5b146108c2576040517f08c379a00000000000000000000000000000000000000000000000000000000081526004016108b990612582565b60405180910390fd5b80600301543414610908576040517f08c379a00000000000000000000000000000000000000000000000000000000081526004016108ff906125ea565b60405180910390fd5b806002015f9054906101000a900473ffffffffffffffffffffffffffffffffffffffff1673ffffffffffffffffffffffffffffffffffffffff163373ffffffffffffffffffffffffffffffffffffffff1603610999576040517f08c379a000000000000000000000000000000000000000000000000000000000815260040161099090612678565b60405180910390fd5b5f816002015f9054906101000a900473ffffffffffffffffffffffffffffffffffffffff1690505f826003015490505f612710600554836109da9190612696565b6109e49190612704565b90505f81836109f39190612734565b905033856002015f6101000a81548173ffffffffffffffffffffffffffffffffffffffff021916908373ffffffffffffffffffffffffffffffffffffffff1602179055505f85600301819055506001856004015f6101000a81548160ff02191690836005811115610a6757610a66611d6e565b5b02179055505f8473ffffffffffffffffffffffffffffffffffffffff1682604051610a9190612794565b5f6040518083038185875af1925050503d805f8114610acb576040519150601f19603f3d011682016040523d82523d5f602084013e610ad0565b606091505b5050905080610b14576040517f08c379a0000000000000000000000000000000000000000000000000000000008152600401610b0b906127f2565b60405180910390fd5b5f831115610be7575f60045f9054906101000a900473ffffffffffffffffffffffffffffffffffffffff1673ffffffffffffffffffffffffffffffffffffffff1684604051610b6290612794565b5f6040518083038185875af1925050503d805f8114610b9c576040519150601f19603f3d011682016040523d82523d5f602084013e610ba1565b606091505b5050905080610be5576040517f08c379a0000000000000000000000000000000000000000000000000000000008152600401610bdc9061285a565b60405180910390fd5b505b3373ffffffffffffffffffffffffffffffffffffffff168660010154887ff77e0d4f5c3f15205697d70365b71b76770851ea471d89e7d477b03a349dfb2b888888604051610c3793929190612878565b60405180910390a450505050505050565b60055481565b5f805f8381526020019081526020015f2090505f73ffffffffffffffffffffffffffffffffffffffff16816001015f9054906101000a900473ffffffffffffffffffffffffffffffffffffffff1673ffffffffffffffffffffffffffffffffffffffff1603610cf2576040517f08c379a0000000000000000000000000000000000000000000000000000000008152600401610ce99061251a565b60405180910390fd5b806007015f9054906101000a900460ff1615610d43576040517f08c379a0000000000000000000000000000000000000000000000000000000008152600401610d3a906128f7565b60405180910390fd5b80600301544210610d89576040517f08c379a0000000000000000000000000000000000000000000000000000000008152600401610d809061295f565b60405180910390fd5b8060050154816006015410610dd3576040517f08c379a0000000000000000000000000000000000000000000000000000000008152600401610dca906129c7565b60405180910390fd5b80600401543414610e19576040517f08c379a0000000000000000000000000000000000000000000000000000000008152600401610e10906125ea565b60405180910390fd5b5f60035f815480929190610e2c9061210e565b9190505590506040518060a001604052808281526020018481526020013373ffffffffffffffffffffffffffffffffffffffff1681526020015f815260200160016005811115610e7f57610e7e611d6e565b5b81525060015f8381526020019081526020015f205f820151815f0155602082015181600101556040820151816002015f6101000a81548173ffffffffffffffffffffffffffffffffffffffff021916908373ffffffffffffffffffffffffffffffffffffffff160217905550606082015181600301556080820151816004015f6101000a81548160ff02191690836005811115610f1f57610f1e611d6e565b5b0217905550905050816006015f815480929190610f3b9061210e565b91905055505f826001015f9054906101000a900473ffffffffffffffffffffffffffffffffffffffff1673ffffffffffffffffffffffffffffffffffffffff1634604051610f8890612794565b5f6040518083038185875af1925050503d805f8114610fc2576040519150601f19603f3d011682016040523d82523d5f602084013e610fc7565b606091505b505090508061100b576040517f08c379a000000000000000000000000000000000000000000000000000000000815260040161100290612a2f565b60405180910390fd5b3373ffffffffffffffffffffffffffffffffffffffff1682857f750f4bc4053354ac0325bfd436d4d646c12915191e834fc3df3a48fbdcfbe9d3346040516110539190611d16565b60405180910390a450505050565b803373ffffffffffffffffffffffffffffffffffffffff165f808381526020019081526020015f206001015f9054906101000a900473ffffffffffffffffffffffffffffffffffffffff1673ffffffffffffffffffffffffffffffffffffffff1614611102576040517f08c379a00000000000000000000000000000000000000000000000000000000081526004016110f990612a97565b60405180910390fd5b5f805f8481526020019081526020015f209050806007015f9054906101000a900460ff1615611166576040517f08c379a000000000000000000000000000000000000000000000000000000000815260040161115d90612aff565b60405180910390fd5b6001816007015f6101000a81548160ff021916908315150217905550827fdc3cb569b066460f4a22dffa05317bdcce5d3826382ed49a21f13e5fa2063d3960405160405180910390a2505050565b6001602052805f5260405f205f91509050805f015490806001015490806002015f9054906101000a900473ffffffffffffffffffffffffffffffffffffffff1690806003015490806004015f9054906101000a900460ff16905085565b5f602052805f5260405f205f91509050805f015490806001015f9054906101000a900473ffffffffffffffffffffffffffffffffffffffff169080600201805461125a90612182565b80601f016020809104026020016040519081016040528092919081815260200182805461128690612182565b80156112d15780601f106112a8576101008083540402835291602001916112d1565b820191905f5260205f20905b8154815290600101906020018083116112b457829003601f168201915b505050505090806003015490806004015490806005015490806006015490806007015f9054906101000a900460ff16905088565b60035481565b5f60015f8481526020019081526020015f2090503373ffffffffffffffffffffffffffffffffffffffff16816002015f9054906101000a900473ffffffffffffffffffffffffffffffffffffffff1673ffffffffffffffffffffffffffffffffffffffff16146113b0576040517f08c379a00000000000000000000000000000000000000000000000000000000081526004016113a790612b67565b60405180910390fd5b600160058111156113c4576113c3611d6e565b5b816004015f9054906101000a900460ff1660058111156113e7576113e6611d6e565b5b14611427576040517f08c379a000000000000000000000000000000000000000000000000000000000815260040161141e906124b2565b60405180910390fd5b5f8211611469576040517f08c379a000000000000000000000000000000000000000000000000000000000815260040161146090612bcf565b60405180910390fd5b8181600301819055506002816004015f6101000a81548160ff0219169083600581111561149957611498611d6e565b5b02179055503373ffffffffffffffffffffffffffffffffffffffff168160010154847f6955244a5d767d5c4a70059914f89b42cb6cbe7e7bc2a832dc6b0c70c81a6bae856040516114ea9190611d16565b60405180910390a4505050565b5f60015f8381526020019081526020015f2090503373ffffffffffffffffffffffffffffffffffffffff16816002015f9054906101000a900473ffffffffffffffffffffffffffffffffffffffff1673ffffffffffffffffffffffffffffffffffffffff161461159c576040517f08c379a000000000000000000000000000000000000000000000000000000000815260040161159390612b67565b60405180910390fd5b6005808111156115af576115ae611d6e565b5b816004015f9054906101000a900460ff1660058111156115d2576115d1611d6e565b5b03611612576040517f08c379a000000000000000000000000000000000000000000000000000000000815260040161160990612c37565b60405180910390fd5b5f805f836001015481526020019081526020015f2090505f73ffffffffffffffffffffffffffffffffffffffff16816001015f9054906101000a900473ffffffffffffffffffffffffffffffffffffffff1673ffffffffffffffffffffffffffffffffffffffff16036116ba576040517f08c379a00000000000000000000000000000000000000000000000000000000081526004016116b19061251a565b60405180910390fd5b806007015f9054906101000a900460ff1661170a576040517f08c379a000000000000000000000000000000000000000000000000000000000815260040161170190612c9f565b60405180910390fd5b5f816004015490506005836004015f6101000a81548160ff0219169083600581111561173957611738611d6e565b5b02179055505f3373ffffffffffffffffffffffffffffffffffffffff168260405161176390612794565b5f6040518083038185875af1925050503d805f811461179d576040519150601f19603f3d011682016040523d82523d5f602084013e6117a2565b606091505b50509050806117e6576040517f08c379a00000000000000000000000000000000000000000000000000000000081526004016117dd90612d07565b60405180910390fd5b3373ffffffffffffffffffffffffffffffffffffffff168460010154867f2ed91a76e9f5e527a4f6a25b562325d498c5f3a02cbd263c1abf33c8fb6bce77856040516118329190611d16565b60405180910390a45050505050565b5f805f805f8060015f8881526020019081526020015f209050805f01548160010154826002015f9054906101000a900473ffffffffffffffffffffffffffffffffffffffff168360030154846004015f9054906101000a900460ff16955095509550955095505091939590929450565b60025481565b5f8073ffffffffffffffffffffffffffffffffffffffff165f808481526020019081526020015f206001015f9054906101000a900473ffffffffffffffffffffffffffffffffffffffff1673ffffffffffffffffffffffffffffffffffffffff1614159050919050565b60045f9054906101000a900473ffffffffffffffffffffffffffffffffffffffff1673ffffffffffffffffffffffffffffffffffffffff163373ffffffffffffffffffffffffffffffffffffffff16146119b0576040517f08c379a00000000000000000000000000000000000000000000000000000000081526004016119a790612d6f565b60405180910390fd5b6113888111156119f5576040517f08c379a00000000000000000000000000000000000000000000000000000000081526004016119ec90612dd7565b60405180910390fd5b5f6005549050816005819055507fd347e206f25a89b917fc9482f1a2d294d749baa4dc9bde7fb495ee11fe4916438183604051611a33929190612df5565b60405180910390a15050565b60045f9054906101000a900473ffffffffffffffffffffffffffffffffffffffff1681565b5f82825260208201905092915050565b7f75736520636f6e74726163742066756e6374696f6e73000000000000000000005f82015250565b5f611aa8601683611a64565b9150611ab382611a74565b602082019050919050565b5f6020820190508181035f830152611ad581611a9c565b9050919050565b5f604051905090565b5f80fd5b5f80fd5b5f80fd5b5f80fd5b5f601f19601f8301169050919050565b7f4e487b71000000000000000000000000000000000000000000000000000000005f52604160045260245ffd5b611b3b82611af5565b810181811067ffffffffffffffff82111715611b5a57611b59611b05565b5b80604052505050565b5f611b6c611adc565b9050611b788282611b32565b919050565b5f67ffffffffffffffff821115611b9757611b96611b05565b5b611ba082611af5565b9050602081019050919050565b828183375f83830152505050565b5f611bcd611bc884611b7d565b611b63565b905082815260208101848484011115611be957611be8611af1565b5b611bf4848285611bad565b509392505050565b5f82601f830112611c1057611c0f611aed565b5b8135611c20848260208601611bbb565b91505092915050565b5f819050919050565b611c3b81611c29565b8114611c45575f80fd5b50565b5f81359050611c5681611c32565b92915050565b5f805f8060808587031215611c7457611c73611ae5565b5b5f85013567ffffffffffffffff811115611c9157611c90611ae9565b5b611c9d87828801611bfc565b9450506020611cae87828801611c48565b9350506040611cbf87828801611c48565b9250506060611cd087828801611c48565b91505092959194509250565b5f60208284031215611cf157611cf0611ae5565b5b5f611cfe84828501611c48565b91505092915050565b611d1081611c29565b82525050565b5f602082019050611d295f830184611d07565b92915050565b5f73ffffffffffffffffffffffffffffffffffffffff82169050919050565b5f611d5882611d2f565b9050919050565b611d6881611d4e565b82525050565b7f4e487b71000000000000000000000000000000000000000000000000000000005f52602160045260245ffd5b60068110611dac57611dab611d6e565b5b50565b5f819050611dbc82611d9b565b919050565b5f611dcb82611daf565b9050919050565b611ddb81611dc1565b82525050565b5f60a082019050611df45f830188611d07565b611e016020830187611d07565b611e0e6040830186611d5f565b611e1b6060830185611d07565b611e286080830184611dd2565b9695505050505050565b5f81519050919050565b5f5b83811015611e59578082015181840152602081019050611e3e565b5f8484015250505050565b5f611e6e82611e32565b611e788185611a64565b9350611e88818560208601611e3c565b611e9181611af5565b840191505092915050565b5f8115159050919050565b611eb081611e9c565b82525050565b5f61010082019050611eca5f83018b611d07565b611ed7602083018a611d5f565b8181036040830152611ee98189611e64565b9050611ef86060830188611d07565b611f056080830187611d07565b611f1260a0830186611d07565b611f1f60c0830185611d07565b611f2c60e0830184611ea7565b9998505050505050505050565b5f8060408385031215611f4f57611f4e611ae5565b5b5f611f5c85828601611c48565b9250506020611f6d85828601611c48565b9150509250929050565b5f602082019050611f8a5f830184611ea7565b92915050565b5f602082019050611fa35f830184611d5f565b92915050565b7f64617465206d75737420626520696e20667574757265000000000000000000005f82015250565b5f611fdd601683611a64565b9150611fe882611fa9565b602082019050919050565b5f6020820190508181035f83015261200a81611fd1565b9050919050565b7f7469636b65745072696365206d757374206265203e20300000000000000000005f82015250565b5f612045601783611a64565b915061205082612011565b602082019050919050565b5f6020820190508181035f83015261207281612039565b9050919050565b7f6d61785469636b657473206d757374206265203e2030000000000000000000005f82015250565b5f6120ad601683611a64565b91506120b882612079565b602082019050919050565b5f6020820190508181035f8301526120da816120a1565b9050919050565b7f4e487b71000000000000000000000000000000000000000000000000000000005f52601160045260245ffd5b5f61211882611c29565b91507fffffffffffffffffffffffffffffffffffffffffffffffffffffffffffffffff820361214a576121496120e1565b5b600182019050919050565b7f4e487b71000000000000000000000000000000000000000000000000000000005f52602260045260245ffd5b5f600282049050600182168061219957607f821691505b6020821081036121ac576121ab612155565b5b50919050565b5f819050815f5260205f209050919050565b5f6020601f8301049050919050565b5f82821b905092915050565b5f6008830261220e7fffffffffffffffffffffffffffffffffffffffffffffffffffffffffffffffff826121d3565b61221886836121d3565b95508019841693508086168417925050509392505050565b5f819050919050565b5f61225361224e61224984611c29565b612230565b611c29565b9050919050565b5f819050919050565b61226c83612239565b6122806122788261225a565b8484546121df565b825550505050565b5f90565b612294612288565b61229f818484612263565b505050565b5b818110156122c2576122b75f8261228c565b6001810190506122a5565b5050565b601f821115612307576122d8816121b2565b6122e1846121c4565b810160208510156122f0578190505b6123046122fc856121c4565b8301826122a4565b50505b505050565b5f82821c905092915050565b5f6123275f198460080261230c565b1980831691505092915050565b5f61233f8383612318565b9150826002028217905092915050565b61235882611e32565b67ffffffffffffffff81111561237157612370611b05565b5b61237b8254612182565b6123868282856122c6565b5f60209050601f8311600181146123b7575f84156123a5578287015190505b6123af8582612334565b865550612416565b601f1984166123c5866121b2565b5f5b828110156123ec578489015182556001820191506020850194506020810190506123c7565b868310156124095784890151612405601f891682612318565b8355505b6001600288020188555050505b505050505050565b5f6080820190508181035f8301526124368187611e64565b90506124456020830186611d07565b6124526040830185611d07565b61245f6060830184611d07565b95945050505050565b7f7469636b6574206e6f74206163746976650000000000000000000000000000005f82015250565b5f61249c601183611a64565b91506124a782612468565b602082019050919050565b5f6020820190508181035f8301526124c981612490565b9050919050565b7f6576656e7420646f6573206e6f742065786973740000000000000000000000005f82015250565b5f612504601483611a64565b915061250f826124d0565b602082019050919050565b5f6020820190508181035f830152612531816124f8565b9050919050565b7f7469636b6574206e6f7420666f722073616c65000000000000000000000000005f82015250565b5f61256c601383611a64565b915061257782612538565b602082019050919050565b5f6020820190508181035f83015261259981612560565b9050919050565b7f696e636f7272656374207061796d656e740000000000000000000000000000005f82015250565b5f6125d4601183611a64565b91506125df826125a0565b602082019050919050565b5f6020820190508181035f830152612601816125c8565b9050919050565b7f6f776e65722063616e6e6f7420627579207468656972206f776e207469636b655f8201527f7400000000000000000000000000000000000000000000000000000000000000602082015250565b5f612662602183611a64565b915061266d82612608565b604082019050919050565b5f6020820190508181035f83015261268f81612656565b9050919050565b5f6126a082611c29565b91506126ab83611c29565b92508282026126b981611c29565b915082820484148315176126d0576126cf6120e1565b5b5092915050565b7f4e487b71000000000000000000000000000000000000000000000000000000005f52601260045260245ffd5b5f61270e82611c29565b915061271983611c29565b925082612729576127286126d7565b5b828204905092915050565b5f61273e82611c29565b915061274983611c29565b9250828203905081811115612761576127606120e1565b5b92915050565b5f81905092915050565b50565b5f61277f5f83612767565b915061278a82612771565b5f82019050919050565b5f61279e82612774565b9150819050919050565b7f7061796d656e7420746f2073656c6c6572206661696c656400000000000000005f82015250565b5f6127dc601883611a64565b91506127e7826127a8565b602082019050919050565b5f6020820190508181035f830152612809816127d0565b9050919050565b7f7061796d656e74206f6620666565206661696c656400000000000000000000005f82015250565b5f612844601583611a64565b915061284f82612810565b602082019050919050565b5f6020820190508181035f83015261287181612838565b9050919050565b5f60608201905061288b5f830186611d5f565b6128986020830185611d07565b6128a56040830184611d07565b949350505050565b7f6576656e742063616e63656c6c656400000000000000000000000000000000005f82015250565b5f6128e1600f83611a64565b91506128ec826128ad565b602082019050919050565b5f6020820190508181035f83015261290e816128d5565b9050919050565b7f6576656e7420616c72656164792073746172746564206f7220706173736564005f82015250565b5f612949601f83611a64565b915061295482612915565b602082019050919050565b5f6020820190508181035f8301526129768161293d565b9050919050565b7f736f6c64206f75740000000000000000000000000000000000000000000000005f82015250565b5f6129b1600883611a64565b91506129bc8261297d565b602082019050919050565b5f6020820190508181035f8301526129de816129a5565b9050919050565b7f7472616e7366657220746f206f7267616e697a6572206661696c6564000000005f82015250565b5f612a19601c83611a64565b9150612a24826129e5565b602082019050919050565b5f6020820190508181035f830152612a4681612a0d565b9050919050565b7f4f6e6c79206f7267616e697a65720000000000000000000000000000000000005f82015250565b5f612a81600e83611a64565b9150612a8c82612a4d565b602082019050919050565b5f6020820190508181035f830152612aae81612a75565b9050919050565b7f616c72656164792063616e63656c6c65640000000000000000000000000000005f82015250565b5f612ae9601183611a64565b9150612af482612ab5565b602082019050919050565b5f6020820190508181035f830152612b1681612add565b9050919050565b7f6e6f74207469636b6574206f776e6572000000000000000000000000000000005f82015250565b5f612b51601083611a64565b9150612b5c82612b1d565b602082019050919050565b5f6020820190508181035f830152612b7e81612b45565b9050919050565b7f726573616c655072696365206d757374206265203e20300000000000000000005f82015250565b5f612bb9601783611a64565b9150612bc482612b85565b602082019050919050565b5f6020820190508181035f830152612be681612bad565b9050919050565b7f616c726561647920726566756e646564000000000000000000000000000000005f82015250565b5f612c21601083611a64565b9150612c2c82612bed565b602082019050919050565b5f6020820190508181035f830152612c4e81612c15565b9050919050565b7f6576656e74206e6f742063616e63656c6c6564000000000000000000000000005f82015250565b5f612c89601383611a64565b9150612c9482612c55565b602082019050919050565b5f6020820190508181035f830152612cb681612c7d565b9050919050565b7f726566756e64207472616e73666572206661696c6564000000000000000000005f82015250565b5f612cf1601683611a64565b9150612cfc82612cbd565b602082019050919050565b5f6020820190508181035f830152612d1e81612ce5565b9050919050565b7f4f6e6c792061646d696e000000000000000000000000000000000000000000005f82015250565b5f612d59600a83611a64565b9150612d6482612d25565b602082019050919050565b5f6020820190508181035f830152612d8681612d4d565b9050919050565b7f46656520746f6f206c61726765000000000000000000000000000000000000005f82015250565b5f612dc1600d83611a64565b9150612dcc82612d8d565b602082019050919050565b5f6020820190508181035f830152612dee81612db5565b9050919050565b5f604082019050612e085f830185611d07565b612e156020830184611d07565b939250505056fea264697066735822122093bb40d3311bdd93b14ccd361a8180f3474327083df5d27ba5661314585994af64736f6c63430008150033",
  "immutableReferences": {},
  "source": "// SPDX-License-Identifier: MIT\r\npragma solidity ^0.8.20;\r\n\r\n/**\r\n * @title NftTicketEscrow\r\n * @dev Simple NFT-like ticketing and resale system with escrow-style transfers.\r\n *      Educational example suitable for Remix and testnets (Sepolia, etc).\r\n *\r\n * Features:\r\n *  - Event creation by organizers\r\n *  - Primary ticket purchases\r\n *  - Secondary resale marketplace with on-contract escrow handling\r\n *  - Ticket validation (mark as used)\r\n *  - Event cancellation and ticket refunds\r\n *\r\n * Notes:\r\n *  - Tickets are simple structs (not an ERC-721 implementation) to keep code compact.\r\n *  - All external calls that transfer ETH use the checks-effects-interactions pattern.\r\n */\r\ncontract NftTicketEscrow {\r\n    // ---------- Types ----------\r\n    enum TicketStatus {\r\n        None,\r\n        Active,\r\n        ForSale,\r\n        PendingTransfer,\r\n        Used,\r\n        Refunded\r\n    }\r\n\r\n    struct EventData {\r\n        uint256 id;\r\n        address organizer;\r\n        string name;\r\n        uint256 date; // UNIX timestamp\r\n        uint256 ticketPrice; // in wei\r\n        uint256 maxTickets;\r\n        uint256 soldTickets;\r\n        bool isCancelled;\r\n    }\r\n\r\n    struct Ticket {\r\n        uint256 id;\r\n        uint256 eventId;\r\n        address owner;\r\n        uint256 resalePrice; // if ForSale\r\n        TicketStatus status;\r\n    }\r\n\r\n    // ---------- Storage ----------\r\n    mapping(uint256 => EventData) public eventsData;\r\n    mapping(uint256 => Ticket) public tickets;\r\n\r\n    uint256 public nextEventId = 1;\r\n    uint256 public nextTicketId = 1;\r\n\r\n    address public platformAdmin;\r\n    // basis points: 10000 = 100%. e.g. 250 = 2.5%\r\n    uint256 public platformFeeBps = 250;\r\n\r\n    // ---------- Events ----------\r\n    event EventCreated(uint256 indexed eventId, address indexed organizer, string name, uint256 date, uint256 ticketPrice, uint256 maxTickets);\r\n    event PrimaryTicketPurchased(uint256 indexed eventId, uint256 indexed ticketId, address indexed buyer, uint256 price);\r\n    event TicketListedForResale(uint256 indexed ticketId, uint256 indexed eventId, address indexed seller, uint256 resalePrice);\r\n    event ResaleCompleted(uint256 indexed ticketId, uint256 indexed eventId, address indexed buyer, address seller, uint256 price, uint256 fee);\r\n    event TicketUsed(uint256 indexed ticketId, uint256 indexed eventId, address indexed user);\r\n    event EventCancelled(uint256 indexed eventId);\r\n    event RefundIssued(uint256 indexed ticketId, uint256 indexed eventId, address indexed recipient, uint256 amount);\r\n    event PlatformFeeUpdated(uint256 oldBps, uint256 newBps);\r\n\r\n    // ---------- Modifiers ----------\r\n    modifier onlyAdmin() {\r\n        require(msg.sender == platformAdmin, \"Only admin\");\r\n        _;\r\n    }\r\n\r\n    modifier onlyOrganizer(uint256 eventId) {\r\n        require(eventsData[eventId].organizer == msg.sender, \"Only organizer\");\r\n        _;\r\n    }\r\n\r\n    // ---------- Constructor ----------\r\n    constructor() {\r\n        platformAdmin = msg.sender;\r\n        platformFeeBps = 250; // default 2.5%\r\n    }\r\n\r\n    // ---------- Admin functions ----------\r\n    /// @notice Set platform fee in basis points (10000 = 100%). Only admin.\r\n    function setPlatformFeeBps(uint256 newBps) external onlyAdmin {\r\n        require(newBps <= 5000, \"Fee too large\"); // prevent crazy fees (>50%)\r\n        uint256 old = platformFeeBps;\r\n        platformFeeBps = newBps;\r\n        emit PlatformFeeUpdated(old, newBps);\r\n    }\r\n\r\n    // ---------- Event & Ticket lifecycle ----------\r\n    /// @notice Create an event. Organizer becomes msg.sender.\r\n    function createEvent(string memory name, uint256 date, uint256 ticketPrice, uint256 maxTickets) external {\r\n        require(date > block.timestamp, \"date must be in future\");\r\n        require(ticketPrice > 0, \"ticketPrice must be > 0\");\r\n        require(maxTickets > 0, \"maxTickets must be > 0\");\r\n\r\n        uint256 eventId = nextEventId++;\r\n\r\n        eventsData[eventId] = EventData({\r\n            id: eventId,\r\n            organizer: msg.sender,\r\n            name: name,\r\n            date: date,\r\n            ticketPrice: ticketPrice,\r\n            maxTickets: maxTickets,\r\n            soldTickets: 0,\r\n            isCancelled: false\r\n        });\r\n\r\n        emit EventCreated(eventId, msg.sender, name, date, ticketPrice, maxTickets);\r\n    }\r\n\r\n    /// @notice Buy a primary ticket directly from the organizer.\r\n    function buyPrimaryTicket(uint256 eventId) external payable {\r\n        EventData storage ev = eventsData[eventId];\r\n        require(ev.organizer != address(0), \"event does not exist\");\r\n        require(!ev.isCancelled, \"event cancelled\");\r\n        require(block.timestamp < ev.date, \"event already started or passed\");\r\n        require(ev.soldTickets < ev.maxTickets, \"sold out\");\r\n        require(msg.value == ev.ticketPrice, \"incorrect payment\");\r\n\r\n        // Effects: mint ticket and update sold count\r\n        uint256 ticketId = nextTicketId++;\r\n        tickets[ticketId] = Ticket({\r\n            id: ticketId,\r\n            eventId: eventId,\r\n            owner: msg.sender,\r\n            resalePrice: 0,\r\n            status: TicketStatus.Active\r\n        });\r\n\r\n        ev.soldTickets++;\r\n\r\n        // Interactions: transfer funds to organizer (checks-effects-interactions)\r\n        (bool sent, ) = payable(ev.organizer).call{value: msg.value}('');\r\n        require(sent, \"transfer to organizer failed\");\r\n\r\n        emit PrimaryTicketPurchased(eventId, ticketId, msg.sender, msg.value);\r\n    }\r\n\r\n    /// @notice List an owned ticket for resale at a chosen price.\r\n    function listTicketForResale(uint256 ticketId, uint256 resalePrice) external {\r\n        Ticket storage t = tickets[ticketId];\r\n        require(t.owner == msg.sender, \"not ticket owner\");\r\n        require(t.status == TicketStatus.Active, \"ticket not active\");\r\n        require(resalePrice > 0, \"resalePrice must be > 0\");\r\n\r\n        t.resalePrice = resalePrice;\r\n        t.status = TicketStatus.ForSale;\r\n\r\n        emit TicketListedForResale(ticketId, t.eventId, msg.sender, resalePrice);\r\n    }\r\n\r\n    /// @notice Buy a ticket listed for resale. Contract handles escrow and platform fee.\r\n    function buyResaleTicket(uint256 ticketId) external payable {\r\n        Ticket storage t = tickets[ticketId];\r\n        require(t.status == TicketStatus.ForSale, \"ticket not for sale\");\r\n        require(msg.value == t.resalePrice, \"incorrect payment\");\r\n        require(msg.sender != t.owner, \"owner cannot buy their own ticket\");\r\n\r\n        address seller = t.owner;\r\n        uint256 price = t.resalePrice;\r\n        uint256 fee = (price * platformFeeBps) / 10000;\r\n        uint256 sellerAmount = price - fee;\r\n\r\n        // Effects: change ownership and reset resale fields before transferring funds\r\n        t.owner = msg.sender;\r\n        t.resalePrice = 0;\r\n        t.status = TicketStatus.Active;\r\n\r\n        // Interactions: pay seller and platform\r\n        (bool sentSeller, ) = payable(seller).call{value: sellerAmount}('');\r\n        require(sentSeller, \"payment to seller failed\");\r\n\r\n        if (fee > 0) {\r\n            (bool sentFee, ) = payable(platformAdmin).call{value: fee}('');\r\n            require(sentFee, \"payment of fee failed\");\r\n        }\r\n\r\n        emit ResaleCompleted(ticketId, t.eventId, msg.sender, seller, price, fee);\r\n    }\r\n\r\n    /// @notice Validate (use) a ticket. This marks it as Used.\r\n    /// @dev For simplicity callable by anyone; in production restrict to gate staff or organizer.\r\n    function validateTicket(uint256 ticketId) external {\r\n        Ticket storage t = tickets[ticketId];\r\n        require(t.status == TicketStatus.Active, \"ticket not active\");\r\n\r\n        EventData storage ev = eventsData[t.eventId];\r\n        require(ev.organizer != address(0), \"event does not exist\");\r\n        // Optionally require time before event date\r\n        // require(block.timestamp <= ev.date, \"event already passed\");\r\n\r\n        t.status = TicketStatus.Used;\r\n\r\n        emit TicketUsed(ticketId, t.eventId, msg.sender);\r\n    }\r\n\r\n    /// @notice Cancel an event. Only organizer may call.\r\n    function cancelEvent(uint256 eventId) external onlyOrganizer(eventId) {\r\n        EventData storage ev = eventsData[eventId];\r\n        require(!ev.isCancelled, \"already cancelled\");\r\n\r\n        ev.isCancelled = true;\r\n\r\n        emit EventCancelled(eventId);\r\n    }\r\n\r\n    /// @notice Refund a ticket after its event has been cancelled.\r\n    /// @dev Refunds the original primary ticket price. If ticket was purchased via resale,\r\n    ///      we still refund the original event ticket price for simplicity.\r\n    function refundTicket(uint256 ticketId) external {\r\n        Ticket storage t = tickets[ticketId];\r\n        require(t.owner == msg.sender, \"not ticket owner\");\r\n        require(t.status != TicketStatus.Refunded, \"already refunded\");\r\n\r\n        EventData storage ev = eventsData[t.eventId];\r\n        require(ev.organizer != address(0), \"event does not exist\");\r\n        require(ev.isCancelled, \"event not cancelled\");\r\n\r\n        uint256 amount = ev.ticketPrice;\r\n\r\n        // Effects: mark refunded so it can't be reused\r\n        t.status = TicketStatus.Refunded;\r\n\r\n        // Interaction: send refund to ticket owner\r\n        (bool sent, ) = payable(msg.sender).call{value: amount}('');\r\n        require(sent, \"refund transfer failed\");\r\n\r\n        emit RefundIssued(ticketId, t.eventId, msg.sender, amount);\r\n    }\r\n\r\n    // ---------- Helpers / Views ----------\r\n    /// @notice Helper to check if an event exists\r\n    function eventExists(uint256 eventId) public view returns (bool) {\r\n        return eventsData[eventId].organizer != address(0);\r\n    }\r\n\r\n    /// @notice Get basic ticket info tuple\r\n    function getTicket(uint256 ticketId) external view returns (uint256 id, uint256 eventId, address owner, uint256 resalePrice, TicketStatus status) {\r\n        Ticket storage t = tickets[ticketId];\r\n        return (t.id, t.eventId, t.owner, t.resalePrice, t.status);\r\n    }\r\n\r\n    // Fallbacks: reject direct ETH sends without calling functions\r\n    receive() external payable {\r\n        revert(\"use contract functions\");\r\n    }\r\n\r\n    fallback() external payable {\r\n        revert(\"use contract functions\");\r\n    }\r\n}",
  "sourcePath": "C:\\Users\\ervim\\nft-ticket-truffle\\contracts\\NftTicketEscrow.sol",
  "compiler": {
    "name": "solc",
    "version": "0.8.21+commit.d9974bed.Emscripten.clang"
  },
  "schemaVersion": "3.4.16",
  "updatedAt": "2025-12-08T11:47:05.091Z",
  "networkType": "ethereum",
  "devdoc": {
    "details": "Simple NFT-like ticketing and resale system with escrow-style transfers.      Educational example suitable for Remix and testnets (Sepolia, etc). Features:  - Event creation by organizers  - Primary ticket purchases  - Secondary resale marketplace with on-contract escrow handling  - Ticket validation (mark as used)  - Event cancellation and ticket refunds Notes:  - Tickets are simple structs (not an ERC-721 implementation) to keep code compact.  - All external calls that transfer ETH use the checks-effects-interactions pattern.",
    "kind": "dev",
    "methods": {
      "refundTicket(uint256)": {
        "details": "Refunds the original primary ticket price. If ticket was purchased via resale,      we still refund the original event ticket price for simplicity."
      },
      "validateTicket(uint256)": {
        "details": "For simplicity callable by anyone; in production restrict to gate staff or organizer."
      }
    },
    "title": "NftTicketEscrow",
    "version": 1
  },
  "userdoc": {
    "kind": "user",
    "methods": {
      "buyPrimaryTicket(uint256)": {
        "notice": "Buy a primary ticket directly from the organizer."
      },
      "buyResaleTicket(uint256)": {
        "notice": "Buy a ticket listed for resale. Contract handles escrow and platform fee."
      },
      "cancelEvent(uint256)": {
        "notice": "Cancel an event. Only organizer may call."
      },
      "createEvent(string,uint256,uint256,uint256)": {
        "notice": "Create an event. Organizer becomes msg.sender."
      },
      "eventExists(uint256)": {
        "notice": "Helper to check if an event exists"
      },
      "getTicket(uint256)": {
        "notice": "Get basic ticket info tuple"
      },
      "listTicketForResale(uint256,uint256)": {
        "notice": "List an owned ticket for resale at a chosen price."
      },
      "refundTicket(uint256)": {
        "notice": "Refund a ticket after its event has been cancelled."
      },
      "setPlatformFeeBps(uint256)": {
        "notice": "Set platform fee in basis points (10000 = 100%). Only admin."
      },
      "validateTicket(uint256)": {
        "notice": "Validate (use) a ticket. This marks it as Used."
      }
    },
    "version": 1
  }
}